:06170000333238080F0629
:10160000043F000000000421000000000A2C5320C9
:101610004F205320534F53000139FF013B00013C41
:0A16200000013A00013800012A0021
:041653007F017E0095
:10165700E4FDFCC3ED9FEC9E5015E4FBFA0BBB00C9
:0F166700010AEB64904A70F50DBD00010C80E4A0
:011676002251
:1016A700A90790FF82E030E70512165380F490FFF8
:0416B70080E9F022B4
:1016BB00A90790FF82E030E70512165380F490FFE4
:0416CB0081E9F0229F
:0C16F4007F011216A77F0A7E0002165725
:10162B00E4F50CE50C90170093FF1216A712165356
:10163B00050CE50CC3940640EA1216F47F801216D3
:08164B00A77F017E0002165783
:021429008F0C26
:10142B00E50C24F360282403707290FF82E0F50D25
:10143B00E50DD3940F50057FC01216A7E50DC3948D
:10144B0041406EE50DD3945050677F80804990FFEB
:10145B0082E0F50DE50DD3940F50047F0180027FE0
:10146B0000E50DC3940040047E0180027E00EE5F18
:10147B0060057F801216A7E50DD3945050047F01B1
:10148B0080027F00E50DC3944140047E0180027E03
:10149B0000EE5F601C7FC01216A78015E50CD3947D
:1014AB001F400BE50C94805005AF0C1216BB1216A7
:1014BB005312165390FF82E0F50DE50DB410057F26
:0E14CB00C01216A7E50DB450057F801216A7BB
:0114D90022F0
:03000B000216CF0B
:1016CF00C0E0758A00758CDC0537E537700205368A
:0316DF00D0E03226
:10169200E4F536F537C3E5379FEE6480F8E5366446
:0516A200809840F122D8
:1016E200438901D28CD2A9E4F58A758CDCD2AF028F
:0216F200162BB5
:101677007F007E00C2A9AC36AD37EC120B1CD2A995
:0A168700E4FBFA79C87842120A0168
:011691002236
:10109D00E4F525753C03AC25EC120B218F138E1254
:1010AD008D118C107F007E007D407C40121312C08C
:1010BD0004C005C006C0077426253CF8E6FC120BDB
:1010CD0021D003D002D001D0001208F8C004C00511
:1010DD00C006C007AC2BEC120B21D003D002D001FF
:1010ED00D000120807120B558F2B0525153CC3E5B3
:1010FD003C64809480509FE52B120CB2116B1B1138
:10110D007B2411A32711772811AF2911AB2A116F59
:10111D002B115B2D119F3011873111B33311973482
:10112D00117F3511A736118F3F116742115F4311A2
:10113D00B74411834511634611BB47118B48117399
:10114D004B11BF4C119B4D11934E000011C47F41AB
:10115D0080627F42805E7F43805A7F4480567F4508
:10116D0080527F46804E7F47804A7F4880467F4928
:10117D0080427F4A803E7F4B803A7F4C80367F4D48
:10118D0080327F4E802E7F4F802A7F5080267F5168
:10119D0080227F52801E7F53801A7F5480167F5588
:1011AD0080127F56800E7F57800A7F5880067F59A8
:1011BD0080027F5A121429E4F53D7426253DF8E48A
:1011CD00F6053DE53DB404F2E4F53AF53BF52B2289
:100D2D001216E2E538701A90F0307403F030B50504
:100D3D00753801800C90F0307404F030B5E57538DD
:0A0D4D0002E53864016003020F3371
:100D5700E4F508F509F50AF50B742C2509F8E6FF03
:100D670060EE24E07003020EB124DFB41A004003E2
:100D7700020EBD900D8875F003A4C58325F0C583C9
:100D870073020DD6020DDF020DE8020DF1020DFA16
:100D9700020E03020E0C020E15020E1E020E270291
:100DA7000E30020E39020E41020E49020E51020E9A
:100DB70059020E61020E69020E71020E79020E814E
:100DC700020E89020E91020E99020EA1020EA9755A
:100DD7000A00750B2D020EBD750A00750B43020E36
:100DE700BD750A00750B46020EBD750A00750B42EC
:100DF700020EBD750A00750B1B020EBD750A007544
:100E07000B2B020EBD750A00750B4B020EBD750A42
:100E170000750B28020EBD750A00750B24020EBD66
:100E2700750A00750B35020EBD750A00750B450274
:100E37000EBD750A00750B31807C750A00750B486D
:100E47008074750A00750B3F806C750A00750B4E30
:100E57008064750A00750B34805C750A00750B4D4C
:100E67008054750A00750B30804C750A00750B2786
:100E77008044750A00750B36803C750A00750B2A8D
:100E87008034750A00750B29802C750A00750B33A1
:100E97008024750A00750B44801C750A00750B4782
:100EA7008014750A00750B4C800CE4F50AF50B7F6E
:100EB700187E01121692753E03E4F53BAE0AAF0B9E
:100EC7007C007D03120C4E7426253EF8A605AE0A5B
:100ED700AF0B7C007D03120C4E8E0A8F0B153E055F
:100EE7003BE53BB404D6E4F53B7426253BF8E6FD29
:100EF700B40106C2977F288008EDB4020BC2977F22
:100F0700787E00121692D2977F287E0012169205DD
:100F17003BC3E53B6480948440CF7F787E00121604
:0C0F2700920509E50970020508020D6042
:100F3300E5386402600302109CE4F53D7426253D08
:100F4300F8E4F6053DE53DB404F2E4F53AF53BF586
:100F53002B90F0307401F020B50302108AE53A605B
:100F63000B1216778F248E238D228C217FCD7ECC7E
:100F73007D4C7C3EAB24AA23A922A821120A9E40C1
:100F8300177F9A7E997D197C3FAB24AA23A922A8B7
:100F930021120A9E5002053B7F9A7E997D197C3F60
:100FA300AB24AA23A922A821120A9E4017E4FFFE1C
:100FB3007D407C40AB24AA23A922A821120A9E507B
:100FC3000312109DE4FFFE7D407C40AB24AA23A9BD
:100FD30022A821120A9E600A400812109D7F5F1208
:100FE3001429E4F536F53730B504C29780F9D29762
:100FF3001216778F428E418D408C3F7FCD7ECC7D04
:10100300CC7C3DAB42AA41A940A83F120A9E40D7DF
:101013007FCD7ECC7DCC7C3DAB42AA41A940A83F8D
:10102300120A9E602E402C7F9A7E997D197C3FABDD
:1010330042AA41A940A83F120A9E50177426253B95
:10104300F87601D29690F0307401F090F038748005
:10105300F0C2967F9A7E997D197C3FAB42AA41A943
:1010630040A83F120A9E40177426253BF87602D209
:101073009690F0307401F090F0387440F0C2967599
:101083003A01E4F536F537C3E53B648094845003B5
:0A109300020F5412109D020F3C22C0
:10080000020BC1E86480F8E933E83360110460F05A
:10081000ED33EC337009E8FCE9FDEAFEEBFF22045E
:1008200060DED3EB9FEA9EE99DE8C2E78CF0C2F759
:1008300095F0400CE8CCF8E9CDF9EACEFAEBCFFB25
:10084000120B8C85D0F05804700320D5B3E80470E7
:10085000075002B2D5020BCB92D5EC0460F7E4CC82
:10086000C0E0C398F8603B94186008400DD0E0FBEE
:10087000020BA3E4FBFAC9FC8028E830E406E4C9D3
:10088000FBE4CAFCE830E305E4C9CACBFCE8540742
:100890006010F8C3E913F9EA13FAEB13FBEC13FC4D
:1008A000D8F130F52FC3E49CFCEF9BFFEE9AFEEDF0
:1008B00099FDD0E0FBEF4E4D4C701222DB03020B92
:1008C000C8EC2CFCEF33FFEE33FEED33FDED30E7EB
:1008D000EB020BA3EF2BFFEE3AFEED39FDD0E0FB70
:1008E00050130BBB0003020BCBED13FDEE13FEEF19
:0808F00013FFEC13FC020BA343
:1008F800EC4D6011E8497017ED33EC3304600DE4FA
:10090800FCFFFEFD22E933E8330470F8020BC11244
:100918000B8C58046009E4CC248150062850090245
:100928000BCB284003020BC8C0E0EB4A7044B980E7
:1009380006D0E0FB020BB7EF4E701CBD8008EBFF42
:10094800EAFEE9FD80EBE98DF0A4FEE5F00209E19D
:10095800E9CDF9EAFEEBFFEF89F0A4FCE5F0CE89DA
:10096800F0A42EFFE435F0CD89F0A42DFEE435F097
:100978008067EF4E7005BD80D780C3EF8BF0A4ACC5
:10098800F0EE8BF0A42CFCE435F0F8EF8AF0A42C00
:10099800E5F038FCE433CB8DF0A42CFCE5F03BF813
:1009A800EE8AF0A42CFCE5F038F8E433CF89F0A403
:1009B8002CFCE5F038CF3400CE89F0A42FFFE5F009
:1009C8003EFEE433C98DF0A42EFEE5F039CD8AF061
:1009D800A42FFFE5F03EFEE43DFD33D0E0FB5007D9
:1009E8000BBB000F020BCBEC2CFCEF33FFEE33FEFE
:0609F800ED33FD020BA32C
:1009FE00020BCBEC5D046005E859047003020BC1D9
:100A0E00120B8C580460F6EC4860F2EC7004FDFE9C
:100A1E00FF22C860DB2481C85009C39860025006CB
:100A2E00020BC89850CAF582E9294B4A7005AB8271
:100A3E00020BB775F0007C1A7880C3EF9BEE9AED2F
:100A4E0099400DC3EF9BFFEE9AFEED99FDE842F043
:100A5E00DC23ACF0D0E0FFD0E0FED0E0FDAB822096
:100A6E00E7101BEB60BAEC2CFCEF33FFEE33FEED20
:100A7E0033FD020BA3E803F830E705C0F075F00074
:100A8E00EF2FFFEE33FEED33FD40B830E7C280AA04
:100A9E0074F8CC6480CCC86480C8F58204604FC3FF
:100AAE00EB9FF5F0EA9E42F0E99D42F0E89C45F09E
:100ABE00603C501DE5825FFFE582D313CB5BCBF428
:100ACE002B5582FB50280ABA002409B90020088051
:100ADE001DE5825BFBE582D313CF5FCFF4C3132FEB
:100AEE005582FF50090EBE00050DBD00010CC3EB73
:100AFE009FF5F0EA9E42F0E99D42F0E89C45F060D9
:090B0E0007CC4820E701B3EC22FA
:100B170075F020800E75F010800575F0087D007E59
:100B2700007F003392D530D503120C84EC3340108C
:100B3700EF33FFEE33FEED33FDEC33FCD5F0ED2262
:0E0B4700E5F0247EA2D513CC92E7CDCEFF229E
:100B5500EDD2E7CD33EC3392D524814006E4FFFE98
:100B6500FDFC22FCE4CFCECDCC24E0501174FF80F7
:100B7500EDC3CC13CCCD13CDCE13CECF13CF047094
:070B8500F030D5DE020C8404
:101312008F0F8E0E8D0D8C0CE4FFFE7D807C3FAB1B
:101322000FAA0EA90DA80C120A9E7009AF0FAE0EDD
:10133200AD0DAC0C22AF0FAE0EAD0DAC0C120BD638
:10134200FBAF13AE12AD11AC10120BD6FFBF0108EA
:10135200E4FFFE7D807C3F22EF64046022EB6404A4
:10136200601DBB0127E4FFFEFDFCAB13AA12A9110D
:10137200A810120A9E60084006E4FFFEFDFC2274DB
:10138200FFF513F512F511F510021420E4F514F52A
:1013920015FFFEFDFCAB0FAA0EA90DA80C120A9EAA
:1013A200504BAF13AE12AD11AC10120B558E148F01
:1013B20015AC14AD15EC120B1CC8ECC8C9EDC9CAAA
:1013C200EECACBEFCBAF13AE12AD11AC10120803C5
:1013D200E4FBFAF9F8120A9E70A5AF0FAE0EAD0D3E
:1013E200AC0C120BF08F0F8E0E8D0D8C0CAF0FAE5E
:1013F2000EAD0DAC0C121211AB13AA12A911A8104A
:101402001208F81215128F138E128D118C10E51519
:1014120030E00B120BF08F138E128D118C10AF1364
:07142200AE12AD11AC102267
:100B8C00E9D2E7C933E833F892D5EDD2E7CD33ECAF
:070B9C0033FC5002B2D52228
:100BA300EC30E7100FBF000C0EBE00080DBD0004B3
:100BB3000BEB6014A2D5EB13FCED92E7FD2274FF5F
:100BC300FCFDFEFF22E480F8A2D574FF13FC7D80B8
:030BD300E480EFCC
:100BD600ED33EC33601004700FED547F7005740232
:0A0BE60092E0227404220422E422AB
:100BF000ED33EC33600A047003BD8004ECB2E7FC13
:010C000022D1
:1014DA0033DA929E35B16011377FE5FE392184896E
:1014EA003AAEC3FF3C1D955B3D6358473E75FDF020
:1014FA003F3172183F800000C2D5020BCB020BC1EC
:10150A00BD80FA50F3020BC8ED33EC330460F17B73
:10151A003B7AAA79B8783F1208F8ED33EC3392D5C2
:10152A00247B5011A2D570DB500BED44802404506B
:10153A0004A2D580CEEFFBEEFAEDF9ECF8120B55CA
:10154A00EFF582F404FC120B21120807C0829014F2
:10155A00DA7409120C10ED33CC33D0F092D525F0A1
:0A156A00A2D57001C313CC13FD22BB
:1011DD003E9248DA3ECCCCCD3F2AAAAB400000006F
:1011ED003F8000003F9837F03FB504F33FD744FCF4
:1011FD003E3172173EB172173F0515913EDE5BD938
:10120D00D2008002C200EDD2E7F8CD33EC3304708A
:10121D000BBD800592D5020BCB020BC140FBD31445
:10122D0060F2F5F07C3FEE7A00C39496C8948B4043
:10123D00230AC89469C8941A401A0AC89468C894B5
:10124D001F40110AC8945AC89425400805F07A0029
:10125D00CDC2E7CDC0F08C168D178E188F19EA23ED
:10126D0023C0E024EDF582E43411F583120CA212B3
:10127D000807ECC0E0EDC0E0EEC0E0EFC0E0120CFE
:10128D0092A816A917AA18AB19120803D0E0FBD023
:10129D00E0FAD0E0F9D0E0B2E7F8120A018C168D31
:1012AD00178E188F199011DD7403120C01A816A951
:1012BD0017AA18AB191208F8D0E0600F24F9F582BF
:1012CD00E43411F583120CA21208078C168D178EBB
:1012DD00188F19D0E0C3947FFDE49400FC120B1C11
:1012ED007B187A727931783F1208F8A816A917AAD7
:1012FD0018AB1912080730000B7BD97A5B79DE78B1
:05130D003E1208F82269
:100C0100C0E0EFFBEEFAEDF9ECF81208F8D0E0F5F0
:100C1100F0EFFBEEFAEDF9ECF8120C92A3A3A3A30B
:100C2100E8C0E0E9C0E0EAC0E0EBC0E0C0F01208D3
:100C3100F8120CA2A3A3A3A3120807D0F0D0E0FBE3
:0D0C4100D0E0FAD0E0F9D0E0F8D5F0D422F0
:0300000002157472
:0C157400787FE4F6D8FD7581420215BBBB
:100C4E00C2D5EC30E709B2D5E4C39DFDE49CFCEEC1
:100C5E0030E715B2D5E4C39FFFE49EFE120CD8C355
:100C6E00E49DFDE49CFC8003120CD830D507C3E450
:060C7E009FFFE49EFE2230
:0E0C8400C3E49FFFE49EFEE49DFDE49CFC2281
:100C9200E493FC740193FD740293FE740393FF22A8
:100CA200E493F8740193F9740293FA740393FB22A8
:100CB200D083D082F8E4937012740193700DA3A3D1
:100CC20093F8740193F5828883E4737402936860E5
:060CD200EFA3A3A380DFE5
:10158000020D2DE493A3F8E493A34003F68001F247
:1015900008DFF48029E493A3F85407240CC8C3336C
:1015A000C4540F4420C8834004F456800146F6DF3B
:1015B000E4800B0102040810204080901600E47EB5
:1015C000019360BCA3FF543F30E509541FFEE49330
:1015D000A360010ECF54C025E060A840B8E493A3F7
:1015E000FAE493A3F8E493A3C8C582C8CAC583CA22
:1015F000F0A3C8C582C8CAC583CADFE9DEE780BEDA
:01162A0000BF
:100CD800BC000BBE0029EF8DF084FFADF022E4CC00
:100CE800F875F008EF2FFFEE33FEEC33FCEE9DECC9
:100CF800984005FCEE9DFE0FD5F0E9E4CEFD22ED0F
:100D0800F8F5F0EE8420D21CFEADF075F008EF2F58
:100D1800FFED33FD4007985006D5F0F222C398FD49
:050D28000FD5F0EA22E6
:00000001FF
